S00F00004772656E6164652E737265635F
S113000012C084C02BC040C629C028C027C026C047
S113001025C0B0C423C022C021C020C01FC01EC040
S11300201DC01CC01BC011241FBECFE5D4E0DEBF21
S1130030CDBF10E0A0E6B0E0E4EDFFE002C0059023
S11300400D92A036B107D9F721E0A0E6B0E001C0D7
S11300501D92A433B207E1F7EED3BAC7D1CF8823F8
S113006011F0959A089595980895882311F0969A19
S1130070089596980895882311F0979A089597986B
S11300800895AF92BF92CF92DF92EF92FF920F93B7
S11300901F93CF93DF938C011816190664F5C0E003
S11300A0D0E00F2EF4EFAF2EF02DBB24B3940F2E1F
S11300B0F8ECCF2ED12CF02D0F2EF0E4EF2EFCE92E
S11300C0FF2EF02D81E0D1DF81E0C9DF2A2D3B2D09
S11300D0F6013197F1F72150310921153105C1F7A6
S11300E080E0C3DF80E0BBDFC7010197F1F7219611
S11300F0C017D10739F7DF91CF911F910F91FF906E
S1130100EF90DF90CF90BF90AF9008951F920F9221
S11301100FB60F9211242F933F934F935F936F93D6
S11301207F938F939F93AF93BF93EF93FF938091AC
S113013080009091810083FF12C080918000909193
S11301408100877F9093810080938000809180005C
S113015090918100806290938100809380008091CF
S113016080009091810086FF06C081E090E090932A
S113017081008093800080E197E20197F1F780E1AC
S113018097E20197F1F78BB78F7B8BBF80917C004F
S113019090917D00A0917E00B0917F008C329140BF
S11301A0A105B105E9F410927C0010927D00109233
S11301B07E0010927F00809180009091810080FFEA
S11301C005C0109281001092800006C081E090E08A
S11301D0909381008093800083E090E052DF13C00D
S11301E080917C0090917D00A0917E00B0917F0071
S11301F00196A11DB11D80937C0090937D00A09376
S11302007E00B0937F008BB780648BBFFF91EF912A
S1130210BF91AF919F918F917F916F915F914F911A
S11302203F912F910F900FBE0F901F901895109231
S11302307C0010927D0010927E0010927F00512C61
S1130240C8ECD0E00F2EF7E04F2EF02D0F2EF8EE75
S11302503F2EF02D0F2EF3E02F2EF02D6624639405
S1130260712C409178005091790060917A007091DE
S11302707B0080917C0090917D00A0917E00B091E4
S11302807F00481759076A077B07C9F080917C00F3
S113029090917D00A0917E00B0917F0080937800C2
S11302A090937900A0937A00B0937B0058D3609325
S11302B074007093750080937600909377004FD309
S11302C000917400109175002091760030917700B0
S11302D0DC01CB01801B910BA20BB30B853691057E
S11302E0A105B10540F010927C0010927D0010929F
S11302F07E0010927F00809180009091810080FFA9
S113030032C2809170009091710086359105C1F1DF
S113031030F4009769F08035910581F092C08B35F7
S1130320910509F455C08F35910509F474C089C04D
S113033080E590E09093710080937000809180003C
S11303409091810080FF81C0809180009091810014
S113035088749927892B09F078C001D360936800C9
S11303607093690080936A0090936B0081E07DDE56
S113037081E075DE86E590E09093710080937000D3
S1130380EED2009168001091690020916A003091CA
S11303906B00DC01CB01801B910BA20BB30B8536E8
S11303A09105A105B10508F450C0D9D26093680045
S11303B07093690080936A0090936B0080E055DE2F
S11303C080E04DDE8BE590E09093710080937000A7
S11303D0C6D2009168001091690020916A003091A2
S11303E06B00DC01CB01801B910BA20BB30B853698
S11303F09105A105B10548F1B2D2609368007093EC
S1130400690080936A0090936B008FE590E090936D
S1130410710080937000A3D200916800109169006C
S113042020916A0030916B00DC01CB01801B910BA1
S1130430A20BB30B813D9740A105B10508F078CF1D
S113044004C010927100109270008091720090911B
S11304507300009721F08B36910539F027C08BE6A5
S113046090E0909373008093720082E890E0EFD361
S1130470892B01F1809180009091810080FF14C04C
S11304808091880090918900489771F4809184004C
S113049090918500A0918600B0918700883E954098
S11304A0A348B10509F469C1CCD3D9CF1092730024
S11304B01092720080916E0090916F00009721F06D
S11304C08538910539F0D6C085E890E090936F00A7
S11304D080936E00809180009091810085FFCEC052
S11304E03ED260936400709365008093660090939D
S11304F0670004E6152D7CC081E0B7DD81E0AFDD47
S1130500B801882777FD8095982F0DD44B015C01A5
S113051020E030E04AEF54E492D46B017C0120E007
S113052030E040E85FE3CDD3882314F120E03FEFCF
S11305304FE757E4C701B6017ED41816ACF420E0A7
S113054030E040E251E4C501B40179D4BED3611571
S1130550710509F435C1CE010197F1F761507109B4
S113056061157105C1F72CC1C701B601AED302C034
S1130570662D772DCB010197F1F780E076DD80E0E1
S11305806EDD20E030E040E85FE3C701B60199D3B7
S113059088230CF120E03FEF4FE757E4C701B60191
S11305A04AD41816A4F420E030E040E251E4C50136
S11305B0B40145D48AD361157105A9F0CE01019720
S11305C0F1F76150710961157105C1F70CC0C701DC
S11305D0B6017BD305C0662D772D02C0662D772D1D
S11305E0CB010197F1F70B30110514F00A501109F2
S11305F0B6D1C0906400D0906500E0906600F090A1
S11306006700DC01CB018C199D09AE09BF09883B49
S11306109B40A105B10508F46FCF03E010E081E031
S113062024DD81E01CDD48E150E068EE70E083E801
S113063090E02AD180ED942DFE013197F1F70197D6
S11306400097D1F780E011DD80E009DD832D922D44
S1130650FE013197F1F701970097D1F70150110985
S113066001151105E1F681E490E0909381008093F7
S113067080002ACF10926F0010926E0080916C005F
S113068090916D008E3A910591F018F4892B49F000
S113069065C0833B910521F1883B910509F448C06D
S11306A05DC08EEA90E090936D0080936C00809121
S11306B080009091810086FFD4CD51D16093600079
S11306C070936100809362009093630081E0CDDCBD
S11306D081E0C5DC83EB90E090936D0080936C0027
S11306E03ED1009160001091610020916200309130
S11306F06300DC01CB01801B910BA20BB30B853F84
S11307009140A105B10508F4ACCD29D160936000F6
S113071070936100809362009093630080E0A5DC95
S113072080E09DDC88EB90E090936D0080936C00FA
S113073016D1009160001091610020916200309107
S11307406300DC01CB01801B910BA20BB30B853F33
S11307509140A105B10508F0A4CF83CD10926D009E
S113076010926C007ECD85B7806885BF789488959B
S113077085B78F7785BF789474CD82E090E081DC73
S11307808091800090918100886090938100809393
S1130790800080918000909181008F7B90938100F4
S11307A08093800080E061DC80E059DC85B780685C
S11307B085BF7894889585B78F7785BF789474CEF4
S11307C080E053DC80E04BDC20E030E040E85FE395
S11307D0C701B60176D288230CF0E5CEFFCE8F9AFE
S11307E097988E9A96988D9A959880E044DC80E04C
S11307F03CDC8A98929A8BB780648BBF85B78C7FD8
S113080085BF88E390E019D094D085B78F78806253
S113081085BF78941092710010927000109273004A
S11308201092720010926F0010926E0010926D0080
S113083010926C000895D3DFFADC9C01BA9AC29836
S113084081E08FBD89E08EBD442737FD4095542F4C
S113085060EA7FE080E090E07DD33BBD2ABD8DE778
S113086090E099BD88BD08952FB520622FBD880FF3
S1130870991F0197F1F708952FB52F7D2FBD880F8C
S1130880991F0197F1F708958F929F92AF92BF92AB
S1130890CF92DF92EF92FF92CF93DF934B015C01F3
S11308A0EA0188E390E0C9DF89B78E7F89BF80E6DB
S11308B099E0DADF88E592E0DFDF80E290E06C0126
S11308C0CC1ADD0AD501C40104C0880F991FAA1FE0
S11308D0BB1FCA94D2F76C017D011C161D06DCF403
S11308E0A12CB12CFF203CF480EB94E0BDDF88E523
S11308F092E0C2DF06C088E592E0B6DF88E592E0C8
S1130900BBDFCC0CDD1CEE1CFF1C9FEFA91AB90A3F
S1130910AC16BD0639F789B7816089BFDF91CF91E5
S1130920FF90EF90DF90CF90BF90AF909F908F900B
S1130930089583B78B7F83BF83B7826083BF83B7F8
S11309408E7F83BF89B7816089BF83ED82BF78942E
S113095082E080939500109231018B980895F89469
S11309606091900070919100809192009091930019
S1130970789408951F920F920FB60F9211242F931B
S11309803F938F939F93AF93BF93EF93FF9383ED25
S113099082BF80918E0090918F00019690938F007A
S11309A080938E0080918E0090918F004497B9F4CB
S11309B010928F0010928E0080919000909191007F
S11309C0A0919200B09193000196A11DB11D809356
S11309D0900090939100A0939200B093930080B301
S11309E083FB332730F9E7E9F0E0808191810196B8
S11309F091838083E0913101EC3420F085E0809391
S1130A00950058C020919500233019F118F4223034
S1130A1039F056C0243091F1253009F051C04AC054
S1130A2031114EC08436910528F41092980010922A
S1130A30970046C021E02093310190939A0080935F
S1130A409900109298001092970083E0809395008B
S1130A5037C03130A9F521E02E0F20933101F0E0A9
S1130A60EE0FFF1FEC56FF4F96838583109298007C
S1130A701092970084E08093950022C0311113C036
S1130A8021E02E0F20933101F0E0EE0FFF1FEC5612
S1130A90FF4F96838583109298001092970083E00D
S1130AA0809395000DC08536910550F085E08093C4
S1130AB0950006C0311104C010929800109297005E
S1130AC0FF91EF91BF91AF919F918F913F912F91A2
S1130AD00F900FBE0F901F901895CF92DF92EF9258
S1130AE0FF920F931F93CF93DF93C0913101CA31CB
S1130AF008F47CC0FC01A085B18512962D913C912F
S1130B0013972532310508F475C012962D913C9146
S1130B1013972034310508F071C0CC2ED12CF4E0A9
S1130B20CF16D1040CF44BC0FD01349603E010E061
S1130B3022E030E040E050E0BA01E080F180C7E01C
S1130B40EC16F10468F1E080F180CEE0EC16F104DB
S1130B5038F5000F111FED01C00FD11FE880F98097
S1130B6013E1E116F10408F453C0E880F98012E2BD
S1130B70E116F10408F446C04BC008811981033121
S1130B80110508F450C060E070E0CB0151C02E5F45
S1130B903F4F89010F5F1F4F34960C151D056CF2F2
S1130BA021503109F901FF230CF43196F595E795AD
S1130BB0DC011796FC93EE9316973C973CF4FC01EA
S1130BC01782168260E070E0CB0132C0DC0112961D
S1130BD04D935D936D937C93159722E030E02D93B4
S1130BE03C9361E070E080E090E022C060E070E05F
S1130BF0CB011EC060E070E0CB011AC060E070E081
S1130C00CB0116C0440F551F661F771F4160BFCF2D
S1130C10E880F9801AE0E116F10408F0AECF60E054
S1130C2070E0CB0105C0440F551F661F771FAFCF7F
S1130C30DF91CF911F910F91FF90EF90DF90CF90B4
S1130C40089582E08093950010923101089529E976
S1130C5030E0FC01318720872091310130E0338777
S1130C60228720919500253049F437DF672B682BC4
S1130C70692B39F4E6DF80E090E0089580E090E0AD
S1130C80089581E090E008951F920F920FB60F929D
S1130C9011248F939F938091320190913301892B7A
S1130CA049F080913201909133010197909333017F
S1130CB0809332019F918F910F900FBE0F901F90E0
S1130CC018956CD008F481E0089594D088F09F576B
S1130CD090F0B92F9927B751A0F0D1F0660F771F84
S1130CE0881F991F1AF0BA95C9F712C0B13081F064
S1130CF09BD0B1E0089598C0672F782F8827B85FFC
S1130D0039F0B93FCCF3869577956795B395D9F7C4
S1130D103EF490958095709561957F4F8F4F9F4FCE
S1130D200895E89409C097FB3EF4909580957095DA
S1130D3061957F4F8F4F9F4F9923A9F0F92F96E923
S1130D40BB279395F695879577956795B795F11198
S1130D50F8CFFAF4BB0F11F460FF1BC06F5F7F4F35
S1130D608F4F9F4F16C0882311F096E911C0772347
S1130D7021F09EE8872F762F05C0662371F096E850
S1130D80862F70E060E02AF09A95660F771F881F1F
S1130D90DAF7880F9695879597F90895990F0008C3
S1130DA0550FAA0BE0E8FEEF16161706E807F90739
S1130DB0C0F012161306E407F50798F0621B730BD4
S1130DC0840B950B39F40A2661F0232B242B252B55
S1130DD021F408950A2609F4A140A6958FEF811DF8
S1130DE0811D089557FD9058440F551F59F05F3FDA
S1130DF071F04795880F97FB991F61F09F3F79F039
S1130E0087950895121613061406551FF2CF4695BA
S1130E10F1DF08C0161617061806991FF1CF86953C
S1130E207105610508940895E894BB276627772720
S1130E30CB0197F90895B2DF08F48FEF08950BD032
S1130E4078C069D028F06ED018F0952309F05AC004
S1130E505FC01124EACFC6DFA0F3959FD1F3950FAD
S1130E6050E0551F629FF001729FBB27F00DB11D2A
S1130E70639FAA27F00DB11DAA1F649F6627B00DBA
S1130E80A11D661F829F2227B00DA11D621F739FA3
S1130E90B00DA11D621F839FA00D611D221F749FB1
S1130EA03327A00D611D231F849F600D211D822FF8
S1130EB0762F6A2F11249F5750408AF0E1F088233F
S1130EC04AF0EE0FFF1FBB1F661F771F881F91504C
S1130ED05040A9F79E3F510570F014C0A6CF5F3F64
S1130EE0ECF3983EDCF3869577956795B795F7957F
S1130EF0E7959F5FC1F7FE2B880F911D9695879507
S1130F0097F9089597F99F6780E870E060E0089585
S1130F109FEF80EC089500240A941616170618060D
S1130F200906089500240A941216130614060506E9
S1130F300895092E0394000C11F4882352F0BB0F7A
S1130F4040F4BF2B11F460FF04C06F5F7F4F8F4FDD
S1130F509F4F0895052E97FB16F400940FD057FD6C
S1130F6005D014D007FC02D046F408C05095409533
S1130F70309521953F4F4F4F5F4F08959095809541
S1130F80709561957F4F8F4F9F4F0895A1E21A2E60
S1130F90AA1BBB1BFD010DC0AA1FBB1FEE1FFF1F19
S1130FA0A217B307E407F50720F0A21BB30BE40B69
S1130FB0F50B661F771F881F991F1A9469F76095B0
S1130FC07095809590959B01AC01BD01CF0108956A
S1070FD0F894FFCFBF
S9030000FC
